:044000000240E23266
:03400B0002403838
:01401300327A
:01401B003272
:01402300326A
:01402B003262
:0B40E20075810C1240DEE582600302D5
:0240ED0040335E
:0740EF007400440060297415
:0540F600302400F97404
:0540FB00413400FA90C1
:064100004130780075A0BB
:0D41060000E493F2A308B8000205A0E582D2
:0B411300B501F1E583B502EC75A0FFDB
:07411E00750800750900752A
:064125000A00750B007595
:02412B000C0086
:03412D000240331A
:054033001240A180FE17
:0E403800C0E0C0F0C082C083C002C000C0D093
:0D40460075D00090FFFFE4F0E5089040DA2F
:0C40530093FA908000F0E5082409F8863C
:0D405F0002EA9040CA93FA90FFFFF00508B6
:03406C00530803F3
:0E406F00D0D0D000D002D083D082D0F0D0E0EC
:01407D003210
:0E407E0074F055894402F589758810758D0619
:06408C00758B0675A88289
:01409200220B
:044093007AFF7B0035
:054097001ABAFF011B35
:04409C00EA4B70F784
:0140A00022FD
:0940A1007A00C00212407ED00238
:0A40AA00C002124093D002BAFF12C8
:0940B400AB0A0B8B0A53030F8BBE
:0940BD000A740FC39BF5097A0097
:0340C6000A80E18C
:0140C90022D4
:0E40CA005F443E7665737B467F776F791B7C83
:0240D8003B2B80
:0440DA00D0E070B012
:0340DE00758200E8
:0140E10022BC
:00000001FF
