:0440000002407A32CE
:01400B003282
:01401300327A
:01401B003272
:01402300326A
:01402B003262
:0B407A00758107124076E582600302AA
:024085004033C6
:07408700740044006029747D
:05408E00B92400F974E3
:05409300403400FA902A
:0640980040B9780075A09C
:0D409E0000E493F2A308B8000205A0E5823B
:0B40AB00B501F1E583B502EC75A0FF44
:0340B60002403392
:0540330012405480FE64
:08403800A298B3E433FA70F81A
:05404000C29885998281
:014045002258
:03404600858299D7
:08404900A299B3E433FA70F808
:02405100C29912
:01405300224A
:0E40540075985053890F4389207588407587F1
:0740620080758BFD758DFDDB
:0C406900124038E582F58212404680F4D7
:014075002228
:0340760075820050
:014079002224
:00000001FF
