:044000000241023245
:03400B0002403838
:01401300327A
:01401B003272
:01402300326A
:01402B003262
:0B41020075810D1240FEE58260030293
:02410D0040333D
:07410F0074004400602974F4
:05411600532400F974C0
:05411B00413400FA90A0
:064120004153780075A078
:0D41260000E493F2A308B8000205A0E582B2
:0B413300B501F1E583B502EC75A0FFBB
:07413E00750800750900750A
:064145000A00750B007575
:05414B000C00750D00E1
:03415000024033F7
:054033001240C380FEF5
:0E403800C0E0C0F0C082C083C002C000C0D093
:0D40460075D00090FFFFE4F0E50C9040FA0B
:0E40530093FA908000F0908000E054F0FAC4E0
:08406100540FFABA0F02802788
:03406900BA07058E
:05406C00850C0D801F12
:03407100BA0B087F
:084074007404450CF50D8014E5
:03407C00BA0D0872
:08407F007408450CF50D8009E1
:03408700BA0E0668
:06408A00740C450CF50D5D
:0B409000E50C2408F890FFFFE6F005A7
:04409B000C530C03B3
:0E409F00D0D0D000D002D083D082D0F0D0E0BC
:0140AD0032E0
:0E40AE0074F055894402F589758810758D06E9
:0640BC00758B0675A88259
:0140C20022DB
:0340C3001240AEFA
:0D40C600908000E0F4FA740F5A24EAF582AD
:0C40D30074403400F583E493FA8A08E599
:0740DF000D9040EA93FA8AFC
:0340E6000980DD71
:0140E90022B4
:0E40EA005F443E7665737B467F776F791B7C63
:0240F8003B2B60
:0440FA00DEED7BB7C5
:0340FE00758200C8
:01410100229B
:00000001FF
